:10000000007C0020B90D0000E50D0000E50D0000AA
:10001000E50D0000E50D0000E50D0000E50D000018
:10002000E50D0000E50D0000E50D0000E50D000008
:10003000E50D0000E50D0000E50D0000E50D0000F8
:1000400029420000E50D0000E50D0000E50D00006F
:10005000E50D0000E50D0000E50D0000E50D0000D8
:10006000E50D0000E50D0000294A000055090000DB
:10007000D5090000E50D0000E50D0000E50D0000CC
:10008000E50D0000E50D0000C9050000E50D0000CC
:10009000E50D0000E50D0000E50D0000E50D000098
:1000A000E50D0000E50D0000E50D0000E50D000088
:1000B000E50D0000653C0000E50D0000E50D0000C9
:1000C000E50D0000E50D000010B5054C237833B9AF
:1000D000044B13B10448AFF300800123237010BD1B
:1000E0004803002000000000AC5E000008B5034B90
:1000F0001BB103490348AFF3008008BD00000000B6
:100100004C030020AC5E0000154B002B08BF134BC6
:100110009D46A3F5803A00218B460F461348144AAA
:10012000121A05F02DFE0F4B002B00D098470E4BF6
:10013000002B00D098470020002104000D000D483E
:10014000002802D00C48AFF3008005F0E7FD200046
:10015000290000F077F805F0CDFD00BF0000080091
:10016000007C002000000000000000004803002088
:1001700058070020000000000000000000B583B018
:1001800001900091084B1B791A46074B5B79002BB5
:100190000CBF01230023DBB21946104600F08EFA93
:1001A00000BF03B05DF804FB8803002008B5204BB6
:1001B0001B681A461F49204800F09AFD1C4B1B681B
:1001C0001A461C491C4800F013FD1A4BDB781A062E
:1001D000184B9B781B041A43164B5B781B02134386
:1001E000144A127813431A46144B1A60114B1A79A9
:1001F000124B1A710F4B5A79104B5A710D4B9B7958
:10020000FF2B10D10D4B1B791A460C4B5B7919460D
:10021000104600F053FA094B19680023084A0020E1
:1002200000F082FA02E0642000F06EFA00BF08BD20
:1002300000000020800300206403002088030020C9
:100240007D01000000B583B000F0ECF84FF461418F
:10025000114800F055FC104800F096FD0346002BB5
:10026000CCBF01230023DBB2002BF4D00A4800F0FE
:1002700013FD03460193019BDBB21946064800F0CB
:1002800075FC019B612BE6D10021034800F06EFC58
:10029000FFF78CFFDFE700BF6403002000B583B0E9
:1002A00001900091019B012B07D1009B4FF6FF723B
:1002B000934202D1034800F0D1FB00BF03B05DF8C8
:1002C00004FB00BF6403002008B54FF6FF71012056
:1002D000FFF7E4FF08BD86B0039002910192039BF3
:1002E00003F10473DA00029B13449B000593059B02
:1002F000019A1A6000BF06B070470000024BDB6C29
:100300001B0EDBB218467047B081E00F00B587B016
:100310002A4B01225A644FF0501304930023039395
:10032000FFF7ECFF03468DF80B306B46184602F0E2
:10033000F3FE9DF80B308E2B20D8214BD3F8B03034
:1003400001931F4A019B43F00403C2F8B03000231D
:100350000593059B052B0DD81A49059A13465B009A
:1003600013441B010B444FF050121A60059B0133DC
:100370000593EEE7124A019BC2F8B0309DF80B30AE
:100380008F2B07D80E4BDB6A23F07F030C4A43F018
:100390002003D3629DF80130012B05D10A4B1B6865
:1003A000094A43F00403136000220D210748FFF7B8
:1003B00092FF00BF07B05DF804FB00BF00000E40D5
:1003C00000400E4000A0004064310E4054300E400A
:1003D00082B001904FF6FF73184602B0704700B527
:1003E00085B00390029101920398FFF7F1FF039A01
:1003F000029B1B0113446C33019A1A6000BF05B0C5
:100400005DF804FB82B001900091019B009A5A6153
:1004100000BF02B0704782B00190019BDB691846B3
:1004200002B0704708B500F00DF800F031F900F0A7
:100430005FF900F0A5F800F00BF900F08DF900BFAE
:1004400008BD000010B588B0FFF760FF184B04AC82
:100450000FCB84E80F0004AB184602F03DF900F022
:100460002BF8144A01AB07CA03C31A7001238DF895
:10047000043000238DF8053000238DF8063000236A
:100480008DF8073000238DF8093000238DF80830EF
:1004900000238DF80A3000238DF80B3001AB18468D
:1004A00002F0F4FD04F0FEF800BF08B010BD00BF7C
:1004B000545E0000645E000030B587B0274B01AC8D
:1004C0001D460FCD0FC42B682380254B5B6803F4BA
:1004D0000023002B0CBF01230023DBB2002B06D02E
:1004E000204B1B88C3F308039BB2ADF80A3001AB65
:1004F000184601F04DFB1C4800F0D2FC01220121FE
:10050000022001F0E7FB01220121002001F0F0FAB6
:1005100000220021032001F0DDFB0121134800F03F
:1005200091FF134B1B68009320238DF800306B461E
:10053000184601F0A7FB4FF4004000F0F7FC022141
:100540000C4801F095F902210B4801F091F90221C4
:100550000A4801F08DF900BF07B030BD705E0000A1
:10056000B081E00FB881E00F00F0490200050A00F9
:10057000845E000002001C0003001E000500220033
:1005800008B501210C4800F05DFF00210B4800F088
:10059000E5FC03461A460A4BDA700A4B00229A71B0
:1005A000084B01229A70074B0022DA70054B032298
:1005B0005A7000BF08BD00BF00820400405DC60045
:1005C000040000200C00002010B582B000238DF83C
:1005D00007309DF80730032B0ED89DF80730102206
:1005E00002FA03F319461748FFF70CFF9DF807308E
:1005F00001338DF80730ECE700238DF806309DF8C5
:100600000630032B1BD89DF806400E48FFF703FF6A
:1006100001469DF806300C4A52F8233003FB01F3E3
:100620000A4AA2FB03235B091A4621460548FFF745
:10063000D6FE9DF8063001338DF80630DFE700BFA7
:1006400002B010BD00840140A80300201F85EB51BB
:1006500008B501210B4800F0F5FE0B4B03229A71FF
:10066000094A0021094802F022FE074A01210748F1
:1006700002F01DFE044A0221044802F018FE00BFE9
:1006800008BD00BF001204009C030020008401404C
:1006900010B584B00121074800F0D4FE064B6C462B
:1006A0000FCB84E80F006B46184602F015F800BF28
:1006B00004B010BD00250A00545E000000B583B0F0
:1006C00001900091094A019B5B0113441878074A85
:1006D000019B5B01134404331968009B042202F060
:1006E000F9FA00BF03B05DF804FB00BF280000204A
:1006F00008B504F0AFF803F0A9F8024803F054F885
:1007000000BF08BD9803002000B583B00190019B95
:100710004FF47A7202FB03F3184604F033F900BF7A
:1007200003B05DF804FB000000B587B004910392AC
:10073000029303468DF81730064B18689DF8171082
:10074000029B0093039B049A03F0EAF800BF07B0F2
:100750005DF804FB9803002008B50121194800F05A
:1007600071FE194B194A9A6001230B220A210220BB
:1007700002F0B0FA01230B220B21022002F0AAFAA8
:10078000134B03225A64124B9B6C23F01F03104A35
:1007900043F00F0393640E4B9B6C23F4F8530C4A05
:1007A00043F4706393640849094802F01BFC094B49
:1007B00000221A70084B00221A70084B00221A708F
:1007C00000BF08BD0072040018000020DDFB05001A
:1007D00000C00040B8030020B9030020BA03002085
:1007E00082B001900091019B012B52D1009B4FF6EA
:1007F000FF7293424DD1284B1B681A88274BA3F8F0
:100800006A20254B1B681A88244BA3F8AA20224B88
:100810001B681A88214BA3F8EA201F4B1B681A8813
:100820001E4BA3F88A211C4B1B681A881B4BA3F88C
:10083000CA211B4B1B681A78184B83F80822164BE9
:100840001B681A88154BA3F80A22154B1B681A78E7
:10085000124B83F82822104B1B681A880F4BA3F801
:100860002A220F4B1B681A780C4B83F848220A4B3C
:100870001B681A88094BA3F84A22094B1B681A788F
:10088000064B83F86822044B1B681A88034BA3F8B5
:100890006A2200BF02B070479403002028000020A5
:1008A0009003002008B54FF6FF710120FFF798FF75
:1008B00008BD000082B003468DF807309DF907306F
:1008C00003F01F0205499DF907305B09012000FA7A
:1008D00002F241F8232000BF02B0704700E100E0BF
:1008E00082B003468DF807309DF9073003F01F02F0
:1008F00006499DF907305B09012000FA02F26033D6
:1009000041F8232000BF02B0704700BF00E100E0C3
:1009100082B001900091019B009A9A6400BF02B0DE
:10092000704782B001900091019BDA6C009BDB4321
:100930001A40019BDA6400BF02B0704782B0019098
:100940000091019BDA6C009B1A43019BDA6400BFA3
:1009500002B0704700B583B01C4B1B6C03F004035E
:10096000002B14BF01230023DBB2002B2AD0174831
:1009700002F032FE03468DF80730154BD3F80431F0
:1009800013499DF80720CA54114BD3F804310133A1
:10099000DBB20F4AC2F804310D4BD3F808310133F2
:1009A0000B4AC2F808310A4BD3F80831B3F5807FFF
:1009B0008CBF01230023DBB2002B03D0044B0122A8
:1009C00083F80C2100BF03B05DF804FB0000014078
:1009D000BC03002008B51F4B1B6C03F00203002B67
:1009E00014BF01230023DBB2002B30D01A4BD3F805
:1009F0000831002B14BF01230023DBB2002B18D0D9
:100A0000154BD3F80031144AD35CDBB219461148B8
:100A100002F0F1FD104BD3F800310133DBB20E4A86
:100A2000C2F800310C4BD3F80831013B0A4AC2F836
:100A30000831094BD3F80831002B0CBF01230023E8
:100A4000DBB2002B03D002210248FFF76AFF00BF90
:100A500008BD00BF00000140CC04002030B583B0C9
:100A60000190019B224A1C4615460FCD0FC495E804
:100A7000070084E8070001211E4800F0E3FC012183
:100A80001D4800F0DFFC01211C4800F0DBFC0023C6
:100A900001220221052002F01DF901230422032175
:100AA000052002F017F9019B00221A70019B002219
:100AB0005A60019B4FF461429A60019B00221A73B5
:100AC000019B05225A73019B0022DA81019B4FF49E
:100AD00080521A82019B00229A74019B0022DA74D0
:100AE000019B00221A75019B184603B030BD00BF60
:100AF000885E0000404105000022040000250A0035
:100B000000B583B001900091009A019B9A60019B0F
:100B10001946144802F0ACFC13491248FFF7F8FEDE
:100B200004211048FFF70AFF0B20FFF7D9FE0C2025
:100B3000FFF7D6FE0B20FFF7BDFE0C20FFF7BAFE35
:100B4000084B5B6F074A43F003035367054B41F6BD
:100B500019329A670521034802F066FC00BF03B012
:100B60005DF804FB00000140F9FF010000B583B00F
:100B700001900B468DF803301B4BD3F8083101333D
:100B8000B3F5807F8CBF01230023DBB2002B0CD098
:100B9000154BD3F808310133B3F5807F8CBF0123A7
:100BA0000023DBB2002B00D0F2E70F4BD3F8043167
:100BB0000D499DF80320CA540B4BD3F8043101337F
:100BC000DBB2094AC2F80431074BD3F808310133CC
:100BD000054AC2F8083102210448FFF7AFFE00BF02
:100BE00003B05DF804FB00BFCC040020000001400E
:100BF00000B587B003900291019200230593019BF9
:100C0000B3F5807F40D8224BD3F80821019B1344D1
:100C1000B3F5807F8CBF01230023DBB2002B0DD006
:100C20001B4BD3F80821019B1344B3F5807F8CBF85
:100C300001230023DBB2002B00D0F1E7059A019BD2
:100C40009A4214D2029A059B1A44114BD3F80431EC
:100C500011780F4AD1540E4BD3F804310133DBB273
:100C60000B4AC2F80431059B01330593E6E7084BB4
:100C7000D3F80821019B1344054AC2F80831022128
:100C80000448FFF75BFE00E000BF07B05DF804FB1F
:100C9000CC0400200000014084B00190134BD3F835
:100CA0000831002B0CBF01230023DBB2002B02D044
:100CB0004FF0FF3317E00D4BD3F800310B4AD35CF4
:100CC0008DF80F30094BD3F800310133DBB2074AFE
:100CD000C2F80031054BD3F80831013B034AC2F892
:100CE00008319DF80F30184604B07047BC0300204F
:100CF00086B003900291019200230593214BD3F813
:100D00000831019A9A428CBF01230023DBB2002BE9
:100D10000BD01C4BD3F80831019A9A428CBF0123A7
:100D20000023DBB2002B00D0F3E7019B002B03D1A3
:100D3000144BD3F808310193059A019B9A4215D2BE
:100D4000104BD3F800210299059B0B440D498A5C96
:100D5000D2B21A700B4BD3F800310133DBB2094A1F
:100D6000C2F80031059B01330593E5E7054BD3F845
:100D70000821019BD31A034AC2F80831059B184683
:100D800006B07047BC03002082B00190094BD3F835
:100D90000831002B0CBF01230023DBB2002B02D053
:100DA0004FF0FF3302E0034BD3F80831184602B08E
:100DB000704700BFBC030020064880470649074A29
:100DC000074B9A42BEBF51F8040B42F8040BF8E7F8
:100DD000FFF79AF9D10E0000946000000000002097
:100DE00048030020FEE700BF00B583B000F020F804
:100DF00001900A4BD3F808311B0AC3F30803009390
:100E0000009B0133019AB2FBF3F30193044A019B67
:100E10001360019B184603B05DF804FB00400E40D0
:100E2000B0020020014B1846704700BF00F0490295
:100E300082B0144BD3F8943003F00703032B08D08F
:100E4000042B02D0022B08D00BE00F4B1B68019340
:100E50000BE04FF40043019307E00C4B1B68019338
:100E600003E00B4B1B68019300BF064BD3F8003126
:100E70001B0A03F01F030133019AB2FBF3F3184678
:100E800002B0704700400E40AC020020A8020020D3
:100E9000B4020020014B1B6818467047A8020020CE
:100EA00000B583B00190084A019B1360074BD3F84B
:100EB000943003F00703022B01D1FFF795FF00BF29
:100EC00003B05DF804FB00BFA802002000400E4004
:100ED0000C4B5B6D0B4A43F400535365094B1B6C81
:100EE000084A23F003031364074B1B68064A23F0E8
:100EF00001031360054B1B68044A23F08053136001
:100F000000BF704700300E4074300E4060300E401D
:100F10004FF40043184670474FF47A7318467047F1
:100F2000014B1B6818467047AC02002000B583B027
:100F30000190084A019B1360074BD3F8943003F0EB
:100F40000703042B01D1FFF74FFF00BF03B05DF88B
:100F500004FB00BFAC02002000400E4000B585B08D
:100F600001900091019B164A934202D9144B0193C0
:100F700006E0019BB3F5FA4F02D24FF4FA43019316
:100F8000009B002B03D10F4800F0C4FA0090009A98
:100F9000019B13445A1E019BB2FBF3F30393039B83
:100FA000002B02D0039B013B0393039B7F2B01D9B2
:100FB0007F230393039BDBB2184605B05DF804FB67
:100FC0000024F4004041050086B003900291019294
:100FD000039B03F10473DA00029B13449B00059307
:100FE000059B019A1A6000BF06B0704784B001905B
:100FF0000091019B03F10473DA00009B13449B00F2
:101000000393039B1B68184604B0704784B001909B
:101010000091019B03F1C0630393039B009A1A6044
:1010200000BF04B0704784B001900091019B03F1B0
:1010300080630393039B009A1A6000BF04B070475B
:1010400000B585B003900291019202990398FFF7D1
:10105000EAFF01990398FFF7D9FF00BF05B05DF8DB
:1010600004FB82B001900122019B02FA03F31846AF
:1010700002B0704700B585B0019001230393019B36
:10108000124A934204D8002303930023029308E0FA
:10109000019B0F4A934202D80123029301E00223ED
:1010A0000293039A10210B48FFF78EFF094BD3F8E8
:1010B000003123F08072029B1B0606491343C1F8DE
:1010C000003100BF05B05DF804FB00BF0048E80137
:1010D0000090D00300400E4082B0034B1B68019388
:1010E000019B184602B07047B802002000B583B0DB
:1010F000FFF79EFE0190074BD3F800311B0A03F067
:101100001F030133019A02FB03F3184603B05DF895
:1011100004FB00BF00400E4000B583B00D4800F056
:10112000C1FA03468DF803309DF80330072B05D034
:10113000092B07D1FFF77CFE019006E0FFF7CCFFFB
:10114000019002E00023019300BF019B184603B009
:101150005DF804FB06000E0000B585B00190019B10
:10116000002B1FD11C4800F09DFA03468DF80B3070
:1011700000BF9DF80B30013B072B24D801A252F889
:1011800023F000BFA9110000C7110000C711000023
:10119000B7110000C7110000C7110000AF11000017
:1011A000BF110000002312E0002303930EE0FFF7BD
:1011B00093FF03900AE0FFF76DFE039006E0FFF750
:1011C00095FF039002E00023039300BF039B1846A2
:1011D00005B05DF804FB00BFB800300084B001909A
:1011E0000091104B5B6803F040730393019B0E4A20
:1011F000934202D80023039305E0019B0B4A9342DC
:1012000001D801230393039B1B060393054B5B68E3
:1012100023F040720349039B13434B6000BF04B0AB
:10122000704700BF00000E4040787D01005A620206
:1012300000B583B00E4B1B6C002B14BF01230023A1
:101240008DF807300A4B41F671321A64FFF7EAFD58
:10125000034600211846FFF7C1FF9DF80730002B19
:1012600002D0034B00221A6400BF03B05DF804FBF8
:1012700000000E4000B585B0019000910D4B1B6C35
:10128000002B14BF012300238DF80F30094B41F6CA
:1012900071321A6400990198FFF7A0FF9DF80F3092
:1012A000002B02D0034B00221A6400BF05B05DF88A
:1012B00004FB00BF00000E4086B001900F23059391
:1012C000019B03330493059B0393039A049B93426E
:1012D00028BF13460293029B1B070293029B1846EA
:1012E00006B07047034B5B6A1B0903F00303184603
:1012F000704700BF00400E4082B00190054B5B6A12
:1013000023F03002019B1B01024913434B6200BFD3
:1013100002B0704700400E4010B584B00190002329
:101320000293019B354A934207D0019B344A934272
:1013300003D0019B334A934200E000BF019800F0C4
:10134000B1F903460393019B2C4A93420ED0019BB3
:101350002B4A934211D0019B2A4A934214D12A4B23
:10136000D3F8803003F0070303930EE0264BD3F845
:10137000843003F00703039307E0234BD3F888304E
:1013800003F00703039300E000BF039B042B2ED858
:1013900001A252F823F000BFE9130000AD130000D2
:1013A000B5130000C5130000BD130000FFF7B0FD2A
:1013B00002901FE0FFF7B4FD02901BE0FFF7ACFDC9
:1013C000029017E0FFF710FD04460F4BD3F80031F1
:1013D0001B0E03F0010301331846FFF742FE0346DC
:1013E000B4FBF3F3029305E00023029302E0002331
:1013F000029300BF029B184604B010BD03001E00FC
:101400000500220002001C0000400E4082B0019046
:10141000094BD3F8443103F00103002B08D100BF7E
:10142000054BD3F84021019B1340002BF8D100E07D
:1014300000BF02B0704700BF00400E4000BF7047C1
:1014400000BF704700B587B001900B468DF80330A0
:1014500000230493019B1B0A03F00F03013B092B9C
:1014600045D801A252F823F0911400009D14000009
:10147000EF140000EF14000097140000A314000004
:10148000AD140000EF140000B7140000C3140000F6
:10149000194B059318E0194B059315E0184B05936C
:1014A00012E0184B0593012304930DE0164B0593AE
:1014B0001023049308E0154B05934FF480330493F5
:1014C00002E0134B059300BF019B1B0B03F01F03AE
:1014D0000393049B002B02D00498FFF797FF9DF81D
:1014E00003301A4603990598FFF76EFD00E000BF30
:1014F00007B05DF804FB00BF00400E40B0400E4056
:10150000C0400E40E0400E40E8400E40F0400E402B
:1015100050410E4000B585B00190019B03F4781353
:10152000B3F5801F00F0A580B3F5801F16D8B3F582
:10153000802F31D0B3F5802F05D8002B28D0B3F5FC
:10154000003F3CD09EE0B3F5402F47D0B3F5602F6D
:1015500000F08B80B3F5202F2DD093E0B3F5E01F82
:101560004BD0B3F5E01F09D8B3F5B01F4FD0B3F59A
:10157000C01F63D0B3F5A01F44D083E0B3F5081FAC
:101580006ED0B3F5401F78D0B3F5F01F51D079E09D
:10159000FFF74EFC039078E0FFF74AFC03903D4BC9
:1015A000D3F80C311B0AC3F308030133039AB2FBCF
:1015B000F3F3039369E0FFF73BFC039065E0FFF76B
:1015C00037FC0390334BD3F808311B0AC3F30803ED
:1015D0000133039AB2FBF3F3039356E0FFF728FCC1
:1015E00003902C4BD3F814311B0A03F01F03013373
:1015F000039AB2FBF3F3039347E02748FFF78CFE0F
:10160000039042E02548FFF787FE03903DE0224823
:10161000FFF782FE03901F4BD3F8203103F00F0336
:101620001846FFF71EFD0246039BB3FBF2F303933C
:101630002BE01B48FFF770FE039026E01848FFF7E9
:101640006BFE0390134BD3F8283103F003031846C5
:10165000FFF707FD0246039BB3FBF2F3039314E08D
:101660000E48FFF759FE03900FE0FFF755FD03907A
:101670000BE0FFF731FD039007E00020FFF76CFD62
:10168000039002E00023039300BF039B184605B0BC
:101690005DF804FB00400E4002001C000500220023
:1016A00003001E0084B0019001238DF80F30019BD0
:1016B00003F00F030293029B013B072B00F2CC8047
:1016C00001A252F823F000BFE91600002317000022
:1016D0005B17000059180000AB170000E31700006B
:1016E000591800000D180000604BD3F8943003F037
:1016F0000703032B08D0042B02D0022B08D00BE0E9
:1017000002238DF80F300BE003238DF80F3007E034
:1017100004238DF80F3003E005238DF80F3000BF50
:101720009EE0524BD3F8803003F00703022B07D022
:10173000042B09D0012B0BD103238DF80F300BE0C4
:1017400002238DF80F3007E00A238DF80F3003E0F5
:1017500001238DF80F3000BF82E0444BD3F8843072
:1017600003F00703013B032B1AD801A252F823F020
:1017700081170000891700009917000091170000D9
:1017800003238DF80F300FE002238DF80F300BE0AC
:101790000A238DF80F3007E006238DF80F3003E0A1
:1017A00001238DF80F3000BF5AE0304BD3F888305A
:1017B00003F00703022B07D0042B09D0012B0BD118
:1017C00003238DF80F300BE002238DF80F3007E074
:1017D0000A238DF80F3003E001238DF80F3000BF8E
:1017E0003EE0224B1B6F03F00103002B05D0012BC1
:1017F00007D109238DF80F3007E007238DF80F304C
:1018000003E001238DF80F3000BF29E0174BD3F818
:101810005C3103F03003102B0DD0102B02D8002BBD
:1018200005D014E0202B0AD0302B0CD00FE0012380
:101830008DF80F300FE007238DF80F300BE00423F5
:101840008DF80F3007E008238DF80F3003E00123F7
:101850008DF80F3000BF03E000238DF80F3000BF7C
:101860009DF80F30184604B0704700BF00400E408E
:1018700000B589B001900B468DF803300323079320
:1018800003238DF81B3000230493019B03F00F0307
:101890000393039B013B072B00F2128101A252F834
:1018A00023F000BFC518000077190000931900004D
:1018B000C11A0000851900002D1A0000C11A00008D
:1018C0004D1A00009DF80330023B082B00F2FA800D
:1018D00001A252F823F000BFFD1800000919000012
:1018E0001519000027190000C51A0000C51A0000CC
:1018F000C51A0000C51A0000C51A0000042307938A
:1019000000238DF81B3017E00323079301238DF884
:101910001B3011E00223079302238DF81B306D4822
:10192000FFF7A8FB08E00123079303238DF81B3082
:101930006848FFF79FFB00BF9DF81B300122012183
:10194000184600F0C7F9FFF773FCFFF777FD624A0E
:10195000079B53676148FFF7DDFD03461846FFF715
:1019600089FBFFF741FA029000210298FFF782FC01
:10197000FFF766FDABE0049B002B01D0049B00E069
:10198000574B0493049B002B01D0049B00E0554B64
:101990000493049B002B01D0049B00E0524B049362
:1019A0009DF80330013B092B00F28E8001A252F812
:1019B00023F000BFDD190000E3190000F319000057
:1019C000C91A0000C91A0000031A0000C91A000051
:1019D000C91A0000C91A00001F1A0000002305934D
:1019E00020E001220121002000F074F90223059378
:1019F00018E001220121012000F06CF90123059378
:101A000010E0FFF7F1F903461846FFF733FB012218
:101A100000213648FFF7D8FA0323059302E0042398
:101A2000059300BF049B059A1A6050E09DF80330AF
:101A3000072B02D0092B04D049E0274B00221A675C
:101A400003E0254B01221A6700BF40E09DF80330F8
:101A5000013B072B3AD801A252F823F07D1A00006F
:101A6000CD1A0000CD1A0000931A0000CD1A000014
:101A7000CD1A0000831A0000A31A0000002305936A
:101A800012E001220121042000F024F90123059332
:101A90000AE001220121022000F01CF90223059333
:101AA00002E00323059300BF0B4BD3F85C3123F016
:101AB0003002059B1B0108491343C1F85C3106E065
:101AC00000BF04E000BF02E000BF00E000BF09B0BB
:101AD0005DF804FB0148E80100400E4000050A00E3
:101AE00080400E4088400E4084400E40B0400E4082
:101AF00000B585B001900B468DF8033013468DF884
:101B0000023000230193214B5A6A019B43F040535A
:101B1000DB43134003939DF80330002B02D04FF0BA
:101B2000805200E00022019B13439DF80220002A0E
:101B300002D04FF0005200E000221343039A1343F7
:101B40000393FFF7A7F90290019B002B03D19DF8A7
:101B50000230002B06D000210298FFF78BFB029881
:101B6000FFF788FA9DF80330002B03D19DF802306F
:101B7000002B04D001220121022000F0ABF8034A1F
:101B8000039B536200BF05B05DF804FB00400E40AC
:101B900010B584B001901120FFF784FD01220021CF
:101BA000022000F097F8019B5B7883F00103DBB221
:101BB000002B0DD0019B9B7883F00103DBB2002B3F
:101BC00006D0019BDB7883F00103DBB2002B00BF62
:101BD00000230393019B1B7C022B01D10123039360
:101BE000264B5B6A23F001022449039B13434B629B
:101BF000019B1B781A4608212148FFF7E5F91F4B86
:101C00009B6A23F00703019AD27A11461B4A0B43C1
:101C10009362019B9B88DB02019A527A1146174A14
:101C20000B43D362154B1B6B03F07F62019BDB8878
:101C3000DB021343019A927A1A43019B1B7ADB0160
:101C400042EA0304019B1B7A1846FFF735FB034663
:101C50000A4A23431363019B5B7B1A03019B9B7B13
:101C60001B011343019AD27B1A43019B1B7B1B046C
:101C7000024913434B6300BF04B010BD00400E4047
:101C800024400E4000B583B001901120FFF70AFDFB
:101C900000220021002000F01DF8019B1B781A464D
:101CA000019B5B78DB021A43019B9B781B061A435E
:101CB000019BDB781B0213431A4604490448FFF7D3
:101CC000BFF900BF03B05DF804FB00BF7F1B000736
:101CD00038400E4000B589B003468DF807300B46FA
:101CE0008DF8063013468DF805309DF80730042B2B
:101CF00000F2AD8001A252F823F000BF591D000090
:101D0000471D0000231D0000111D0000351D0000AF
:101D100001230593022304930123079300230693D1
:101D200025E0042305930823049303230793022348
:101D300006931CE0102305932023049305230793A7
:101D40000423069313E04023059380230493072381
:101D50000793062306930AE04FF4807305934FF42C
:101D600000730493092307930823069300BF9DF88B
:101D70000630002B5FD000238DF80F309DF8073020
:101D8000022B10D1FFF7AEFA0346002B0BD1012333
:101D90008DF80F30304B5B6A03F00103012B02D149
:101DA0000120FFF7A9FA2C4A059B136600BF06998C
:101DB0002A48FFF71BF90346002BF8D09DF80530A1
:101DC000002B45D000BF07992448FFF70FF90346C1
:101DD000002BF8D09DF80730022B39D19DF80F3039
:101DE000002B35D01C4B5B6A03F00103012B05D19E
:101DF00001222021022000F035F903E00021022019
:101E000000F0E4F8022000F02BF8029001220021FB
:101E10000220FFF75FFF0299022000F057F80E4AF8
:101E2000059B136600BF07990C48FFF7DFF80346D0
:101E3000002BF8D00CE0084A049B136600BF0699FB
:101E40000648FFF7D3F80346002BF8D100E000BFA7
:101E500009B05DF804FB00BF00400E4090400E400A
:101E600084B003468DF807309DF80730013B032B03
:101E700023D801A252F823F0891E0000AD1E0000F5
:101E8000951E0000A11E00000F4B1B6AC3F3080340
:101E9000039315E00C4B1B6903F07F0303930FE0E2
:101EA000094B9B6903F07F03039309E0064BD3F8CA
:101EB0009C30C3F30A03039302E00023039300BFA3
:101EC000039B184604B0704700400E4000B585B033
:101ED000034600918DF807309DF80730013B032B36
:101EE00069D801A252F823F0F91E00007B1F000000
:101EF000271F0000511F0000009BC3F3080300933D
:101F000000BF1A212E48FFF771F80346002BF8D1C5
:101F10002C4B1B6A23F4FF7323F001032949009A19
:101F200013430B6248E0009B03F07F03009300BF64
:101F300018212348FFF75AF80346002BF8D1214B0C
:101F40001B6923F07F021F49009B13430B6133E0A1
:101F5000009B03F07F03009300BF19211848FFF78F
:101F600045F80346002BF8D1164B9B6923F07F02FE
:101F70001449009B13438B611EE0124BD3F8903041
:101F8000104B5B6A23F030030E4A43F01003536298
:101F9000009BDB0903F00F031846FFF78DF9039050
:101FA000084B1A6B084B1340009A1A430549039BD0
:101FB00013430B6300E000BF00BF05B05DF804FBF6
:101FC00040410E4000400E4000F8FF0F00B585B0C4
:101FD00003460A468DF8073013468DF80630FFF7A2
:101FE00081F90346002B03D14FF44003039317E01C
:101FF0009DF80630202B04D0302B0AD0002B04D0C3
:102000000BE04FF4000303930AE04FF44003039303
:1020100006E04FF44003039302E0104B039300BF2C
:1020200000BF0F4BD3F89020039B1340039A9A42B2
:10203000F7D1039B03F48003002B0AD0084BD3F89D
:10204000A03003F48063002B14BF01230023DBB214
:1020500000E00123184605B05DF804FBFF03E1072B
:1020600000400E4000B583B003468DF807300B46A4
:102070008DF8063013468DF805309DF80730022B99
:102080001AD19DF80630002B08D00F4B4FF4806218
:10209000C3F8A8200C4A9DF8063053669DF8053019
:1020A000002B0BD09DF806209DF8073011461846EE
:1020B000FFF78CFF034603E000BF00E000BF0123F1
:1020C000184603B05DF804FB00400E4086B0039054
:1020D00002910192039B03F10473DA00029B134403
:1020E0009B000593059B019A1A6000BF06B07047DC
:1020F00084B001900091019B03F10473DA00009B0E
:1021000013449B000393039B1B68184604B070475D
:10211000024B1B6DDBB21846704700BFB081E00F69
:1021200088B0274B0793274B0693274B0593274BE4
:102130000493274B0393274B0293274BD3F86C311F
:10214000B3F1FF3F37D0079B5B680193079B1B6888
:102150000093009B019A1A60069B5B680193069BA3
:102160001B680093009B019A1A60059B5B680193B2
:10217000059B1B680093009B019A1A60049B5B6897
:102180000193049B1B680093009B019A1A60039BB8
:102190005B680193039B1B680093009B019A1A6084
:1021A000029B5B680193029B1B680093009B019A52
:1021B0001A60012300E00023184608B0704700BFF2
:1021C0003880E00F4080E00F4880E00F5080E00F43
:1021D0005880E00F6080E00FB081E00F00B585B05F
:1021E000254BDB6E244A43F08073D36600212348DD
:1021F000FFF77EFF0390039B002B03D0042000F029
:1022000067FC02E0002000F063FC1B4B1B6E1A4AC7
:1022100023F0C0431366184BDB6C174A43F00603E8
:10222000D36401AB184600F077FF9DF80530012B11
:102230001ED19DF80430022B1AD8114B1B78002BAD
:1022400016D1104B1B680F4A43F0010313600A4B71
:102250001B6E0293029A0C4B13400293029A0B4B93
:1022600013430293044A029B1366054B01221A7022
:1022700000BF05B05DF804FB00300E404C300E404E
:10228000DC05002044300E40000F0EF0B4C0400BBF
:102290008AB001230993099B1B050893324BDB6C21
:1022A0001B0A03F00F030793304B1B881A462F4B72
:1022B0001B8828335B08134403F12801079B5A1C31
:1022C00013469B001344B1FBF3F3013B0693069BBB
:1022D000059307230493049A059B934228BF134652
:1022E0000693069B1B0606931F4BDB6C23F0EE62E6
:1022F0000699089B0B431C491343CB641C4BB3F951
:102300000030002B2CDB1A4BB3F90030ADF80E3047
:10231000BDF80E20BDF80E3028335B08134403F1DE
:102320002802079B01335900079B01335B080B44CC
:10233000B2FBF3F30293029B019307230093009AED
:10234000019B934228BF13460293029B1B010293F9
:10235000054B1B6D23F070020349029B13430B6571
:1023600000BF0AB0704700BF00300E40DE050020FD
:10237000E205002082B001900B46ADF80230019BCF
:102380009AB2044B1A80044ABDF80230138000BF91
:1023900002B07047DE050020E205002082B003464F
:1023A0008DF807309DF80730002B02D0012B04D0A8
:1023B00007E0054B054A9A6503E0034B044A9A651A
:1023C00000BF00BF02B0704700300E40774020577A
:1023D000372110B700B585B003468DF807300B469E
:1023E0008DF8063013468DF80530FFF791FE034651
:1023F0008DF80B309DF80B30032B10D8294BD3F8F8
:102400007C3103939DF80730002B04D0039B1B0AFB
:10241000DBB203932AE0039BDBB2039326E0214B5C
:10242000D3F8803103939DF80630032B1CD801A20A
:1024300052F823F0452400004D24000057240000EA
:1024400061240000039BDBB203930FE0039B1B0A94
:10245000DBB203930AE0039B1B0CDBB2039305E0A2
:10246000039B1B0E039301E0002316E09DF805304B
:10247000002B11D1039B1B030393039B23F4704395
:10248000002B01D0002308E0074BDB6E23F47042E1
:102490000549039B1343CB660123184605B05DF83D
:1024A00004FB00BFB081E00F00300E4088B0039005
:1024B000029111461A460B468DF8073013468DF8E7
:1024C000063000230793002306939DF806301B0275
:1024D0009DF80720002A01D0012200E000221343CA
:1024E0000593059B40F20112934233D0059BB3F54F
:1024F000817F0AD2059B012B20D0059B002B4DD05C
:10250000059BB3F5807F55D078E0059B40F2012212
:1025100093422BD0059B40F20122934204D8059BA5
:10252000B3F5007F52D069E0059BB3F5407F59D0E9
:10253000059B40F20132934224D05FE0344BD3F844
:1025400074310793079B1B0ADBB20693079BDBB230
:10255000079353E02E4BD3F874310793079B1B0E60
:102560000693079B1B0CDBB2079347E0284BD3F87D
:1025700078310793079B1B0ADBB20693079BDBB2FC
:1025800007933BE0224BD3F878310793079B1B0E50
:102590000693079B1B0CDBB207932FE01C4BD3F871
:1025A0006C310793079B1B0ADBB20693079BDBB2D8
:1025B000079323E0164BD3F86C310793079B1B0E50
:1025C0000693079B1B0CDBB2079317E0104BD3F865
:1025D00070310793079B1B0ADBB20693079BDBB2A4
:1025E00007930BE00A4BD3F870310793079B1B0E40
:1025F0000693079B1B0CDBB2079300BF039B079A54
:102600001A60029B069A1A6000BF08B0704700BFAC
:10261000B081E00F00B585B003468DF8073000BFEC
:102620002A4B9B6F03F00103002BF9D1274B1B6C46
:1026300003F003030393039B002B04D001220D211D
:102640002348FFF743FD039BDBB29DF807209A4226
:1026500009D19DF80730002B33D100220D211C48F1
:10266000FFF734FD2DE0039B002B06D19DF80730CA
:10267000012B02D1174B02221A7000BF134B9B6F24
:1026800003F00103002BF9D1104B1B6C23F0030264
:102690009DF807300D4913430B6400BF0B4B9B6F34
:1026A00003F00103002BF9D19DF80730002B14BF74
:1026B00001230023DBB21A460D210548FFF706FD72
:1026C00000E000BF05B05DF804FB00BF00300E4025
:1026D00054300E40DC05002000B585B001903F4B22
:1026E00002229A633D4B9B6B03F00F03022B01D038
:1026F00000236FE0FFF714FD019B5B78012B019B2A
:10270000DB884A2B02D80023039315E0019BDB886A
:10271000B3F5FA7F03D24FF0805303930CE0019B93
:10272000DB8840F6C312934203D84FF00053039363
:1027300002E04FF040530393284BDB6C23F04053EF
:1027400023F00103019AB2F90C20002A01DB0121D8
:1027500000E00021039A0A4320491343CB64FFF7AA
:102760003DFD019B1B891A46019BB3F90C301946AC
:102770001046FFF7FFFD019B9A88194B1A80019BB9
:102780009B88184600F03AF9019B9B7B1846FFF79F
:1027900005FE019B5B8801220121184600F024F808
:1027A000034683F00103DBB2002B01D0002311E0CC
:1027B000019B9B7A002B14BF01230023DBB21A4636
:1027C00005210848FFF782FC019B5B781846FFF75C
:1027D00021FF0123184605B05DF804FB00300E40D0
:1027E000E00500203C300E4000B591B001900B4652
:1027F0008DF8033013468DF8023000230F93002329
:102800000D9308AB00221A605A6006AB00221A60D2
:102810005A6004AB00221A605A600023ADF80C30F5
:10282000019BB3F5E16F06D3019B40F6B8329342AA
:1028300001D8012300E000238DF833309DF83330B8
:1028400003F001038DF833309DF8333083F001033A
:10285000DBB2002B01D00023C7E0019BB3F5E16F91
:102860008CBF012300238DF832309DF83230002BCD
:102870000AD04FF4E1630F9340F6B8330D930D9AED
:102880000F9BD31A0E9309E04FF496630F934FF406
:10289000E1630D930D9A0F9BD31A0E939DF832307E
:1028A000002B0BD0534BD3F868310793079B1B0EBB
:1028B0000593079B1B0CDBB207930AE04D4BD3F843
:1028C00068310793079B1B0ADBB20593079BDBB2BA
:1028D0000793494BDB6C1B0FDBB203F00303DBB246
:1028E0008DF80C309DF80C309DF8322004A906A814
:1028F000FFF7DCFD019A0F9BD31A0599079A8A1AF4
:1029000002FB03F20E9BB2FBF3F30993099A079BB8
:1029100013440993019A0F9BD31A0499069A8A1AB1
:1029200002FB03F20E9BB2FBF3F30893089A069B9B
:1029300013440893099A059B9A420BD8099A079B5E
:102940009A4207D3089A049B9A4203D8089A069B96
:102950009A4201D2002348E09DF80230002B12D0A9
:10296000254BDB6D23F4FE4323F00203099A120288
:1029700013439DF83220002A01D0022200E00022F9
:102980001D491343CB659DF80330002B2CD09DF8D7
:102990000C109DF8323000221846FFF71BFD03464D
:1029A00083F00103DBB2002B01D000231DE0089B64
:1029B0000B93E7230A930A9A0B9B934228BF134673
:1029C00008930D4B5B6E23F4FF7323F00103089A09
:1029D000520013439DF83220002A01D0012200E06A
:1029E0000022054913434B660123184611B05DF8D8
:1029F00004FB00BFB081E00F00300E4000B585B091
:102A0000019000230393314B1B6F03F007030293E4
:102A10002E4BDB6C03F00103002B14D0029B012B27
:102A200011D9019B132B02D80423039337E0019B98
:102A3000132B05D9019B272B02D8082303932EE0E3
:102A4000102303932BE0214BDB6C03F00103002BDD
:102A500014D1029B012B11D8019B092B02D804230E
:102A600003931CE0019B092B05D9019B132B02D872
:102A70000823039313E01023039310E0134BDB6C44
:102A800003F00103002B0AD0029B012B07D8019B06
:102A9000272B02D80823039301E010230393039B01
:102AA000013B0393039B1A02039B1B0313430393F2
:102AB000064BDB6C23F47F420449039B1343CB6436
:102AC000FFF7E6FB00BF05B05DF804FB00300E40E9
:102AD00000B585B003468DF8073000210F48FFF799
:102AE00007FB0390039B002B03D19DF80730012BBC
:102AF00001D9039B002B00BF094B1B6F23F007027A
:102B00009DF80730064913430B67064B1B88184690
:102B1000FFF774FF00BF05B05DF804FB4C300E40BA
:102B200000300E40E005002084B003468DF80730E9
:102B30000223039300238DF80B309DF80730002B00
:102B400001D1002303931E4B1B68012B06D10123E7
:102B50008DF80B301A4B4AF6E8521A609DF8073090
:102B6000022B06D1174B1B68164A23F0740313601F
:102B700005E0144B1B68134A43F074031360124BB7
:102B80001B68114A43F008031360104B1B6823F4C1
:102B90004062039B9B0203F440630C4913430B60A8
:102BA000094B1B68084A23F0080313609DF80B309B
:102BB000002B02D0024B00221A6000BF04B0704705
:102BC00090310E4064310E409C310E403C400E402E
:102BD00084B001900091019B03F1C0630393039BB8
:102BE000009A1A6000BF04B0704784B00190009151
:102BF000019B03F180630393039B009A1A6000BF5B
:102C000004B0704700B583B0034600918DF80730DB
:102C10009DF80730002B12D09DF80730012B0ED005
:102C20009DF80730022B0AD09DF80730032B06D001
:102C30009DF80730042B02D09DF80730052B9DF836
:102C4000072013465B0013441B010C3303F1804340
:102C500003F520430121009A01FA02F211461846B9
:102C6000FFF7C3FF00BF03B05DF804FB00B583B0FE
:102C7000034600918DF807309DF80730002B12D0E5
:102C80009DF80730012B0ED09DF80730022B0AD09B
:102C90009DF80730032B06D09DF80730042B02D097
:102CA0009DF80730052B9DF8072013465B00134461
:102CB0001B010C3303F1804303F520430121009AEB
:102CC00001FA02F211461846FFF782FF00BF03B077
:102CD0005DF804FB00B585B00291019303468DF8C1
:102CE0000F3013468DF80E309DF80F30002B12D0A8
:102CF0009DF80F30012B0ED09DF80F30022B0AD01B
:102D00009DF80F30032B06D09DF80F30042B02D016
:102D10009DF80F30052B9DF80E30002B0FD0019B36
:102D2000002B06D09DF80F3002991846FFF79EFF42
:102D300005E09DF80F3002991846FFF763FF029BEC
:102D4000072B23D832499DF80F2013465B0013440C
:102D50001B010B4404331A68029B9B000F2101FAEC
:102D600003F3DB4313409DF80E10029A920001FA20
:102D700002F2114626489DF80F20194313465B00C6
:102D800013441B0103440433196028E020499DF8D3
:102D90000F2013465B0013441B010B4408331A68D1
:102DA000029B03F18043083B9B000F2101FA03F3D0
:102DB000DB4302EA03019DF80E20029B03F18043EE
:102DC000083B9B0002FA03F311489DF80F201943BA
:102DD00013465B0013441B010344083319609DF83C
:102DE0000E30002B0FD1019B002B06D09DF80F3029
:102DF00002991846FFF73AFF05E09DF80F30029957
:102E00001846FFF7FFFE00BF05B05DF804FB00BFEA
:102E100000A0004082B001900091019B009ADA630B
:102E200000BF02B0704786B0039002910192039BED
:102E300003F10473DA00029B13449B000593059B86
:102E4000019A1A6000BF06B0704784B001900091EB
:102E5000019B03F1C0630393039B009A1A6000BFB8
:102E600004B0704784B001900091019B03F180632E
:102E70000393039B009A1A6000BF04B0704700B52B
:102E800085B003900291019202990398FFF7EAFF3F
:102E900001990398FFF7D9FF00BF05B05DF804FB67
:102EA00000B589B00390029101928DF80330019B27
:102EB000002B71D09DF8033003F003038DF803302D
:102EC000039B1B6823F44072039B1A6003989DF8D0
:102ED00003301B021A464FF44071FFF7D0FF029BEC
:102EE000002B03D12F48FEF715FB02904FF0FF3364
:102EF0000693039B1B6803F00203002B10D09DF880
:102F00000330012B06D0022B07D0002B19D1264B02
:102F1000069319E0254B069316E0254B069313E024
:102F20009DF80330012B06D0022B07D0002B0AD1CD
:102F30001D4B069308E01F4B069305E01E4B0693BE
:102F400002E000BF00E000BF9DF803301B4AD35CE5
:102F50000593059B019A02FB03F30493049B002B4A
:102F60001CD0019BDB00029AD21A049B13445A1E08
:102F7000049BB2FBF3F3013B0793039B1B6803F035
:102F80000203002B04D0079B002B01D101230793E0
:102F9000079A039B1A6102E000BF00E000BF09B07E
:102FA0005DF804FB4041050080841E00404B4C004E
:102FB000809FD50040548900002D3101A45E00009F
:102FC00000B583B001900B468DF80330019B9DF84E
:102FD000032000211846FFF726FF00BF03B05DF86D
:102FE00004FB000000B583B001900091019B00221A
:102FF0001A6410490198FFF70DFF0198009B5B7858
:1030000083F00103DBB21A460121FFF70CFF009B9E
:103010005968009B9A68009B1B7B0198FFF740FF53
:10302000009B1B7819460198FFF7CAFF00BF03B049
:103030005DF804FBFFFF070082B001900091009B48
:103040001B781A46009B5B789B001A43009B9B7879
:103050009B011A43009BDB781B011A43009B1B79E1
:10306000DB021A43009B5B791B031A43009B9B798D
:103070005B0405491A43019B04331B010B441A608E
:1030800000BF02B0704700BF0020044082B0019032
:10309000019B1B78002B01D0012200E00022019B44
:1030A0005B78002B01D0042300E000231343019A36
:1030B0009278002A01D0102200E000221343019AE6
:1030C000D278002A01D0202200E000221A43019B7E
:1030D0001B791B021A43019B5B791B031343019A63
:1030E0009279002A02D04FF4004200E000221A43F5
:1030F000019BDB791B041343019A127A002A02D048
:103100004FF4003200E00022024913430B6000BF7D
:1031100002B070470020044084B001901D4B5B69F1
:10312000DBB29B00DBB203F03C038DF80F30194B90
:103130001B699B09DBB203F00303DAB29DF80F3081
:1031400013438DF80F30019B9DF80F209A70114B9F
:103150001B69DBB203F03F03DAB2019B5A700D4BDF
:103160009B691B09DBB21B018DF80F30094BDB6932
:103170001B09DBB203F00F03DAB29DF80F301343E3
:103180008DF80F30019B9DF80F201A7000BF04B01E
:10319000704700BFD0FF0FE082B00190019B084A4A
:1031A000934203D0019B074A934201D1012300E0DF
:1031B000002303F00103DBB2184602B0704700BFE2
:1031C000008001400084014000B585B0019000916D
:1031D0000198FFF7E1FF00230393009B1B7883F026
:1031E0000103DBB2002B02D0019B02225A60019B3B
:1031F00000225A62009B9B781A06009BDB781B0416
:103200001A43009B9B799B021A43009BDB791B02AC
:103210001343009A127A1343009A5278002A01D07D
:10322000402200E000221343009A527A002A01D083
:10323000802200E000221343009A927A002A01D0F3
:10324000202200E000221343009AD27A002A01D003
:10325000102200E000221343009A127B002A01D0C2
:10326000082200E0002213430393009B1B79002BEC
:1032700002D04FF4005200E00022009B5B79002B4B
:1032800002D04FF0805300E000231343039A13430E
:103290000393019B039A1A60009B1B78002B02D0BA
:1032A000019B01225A6000BF05B05DF804FB00B528
:1032B00085B00390029101920398FFF76DFF019B87
:1032C0001B789A06019B5B781B061A43019B9B782F
:1032D0001B041A43019BDB781B031A43019B1B79D8
:1032E0009B021A43019B5B791B021343019A92795B
:1032F0001343019AD279002A02D04FF0804200E0B5
:1033000000221343019A127A002A02D04FF0005291
:1033100000E000221343019A527A002A01D01022C1
:1033200000E000221343019A927A002A01D004227D
:1033300000E000221A43019BDB7A1B071A43039922
:10334000029B06331B010B441A6000BF05B05DF8F9
:1033500004FB82B001900B468DF803309DF80330DA
:1033600063F07F03DBB21A46019B9A6500BF02B08F
:103370007047000000B587B00390029101928DF86C
:103380000330029B002B03D12548FEF7C3F80290BF
:103390009DF80330202B0CD0202B02DC002B05D015
:1033A0003BE0402B08D0602B09D036E0102305937A
:1033B00008E00823059305E00623059302E00423B3
:1033C000059300BF029B5A01059B019901FB03F382
:1033D0005B0813440493059B019A02FB03F3049AD0
:1033E000B2FBF3F30493049B203B0493049BDB00A8
:1033F0000493049A0B4B13400493039B1B6823F024
:103400006002039B1A60039B1A689DF803301A43FD
:10341000039B1A60039B049A5A6107B05DF804FB92
:1034200040410500F8FF7F0084B001900B468DF805
:103430000330019B0C4A934202D0019B0B4A9342FA
:1034400000BF9DF80330DB430393039B03F00503A8
:103450000393039B5A00019BDA609DF80320019BB4
:10346000DA6000BF04B07047000001400004014072
:1034700000B583B001900091019B2F4A934202D086
:10348000019B2E4A934200BF019800F059F8009B1F
:103490009B7C002B05D0019B1B6843F08042019B65
:1034A0001A60009BDB7C002B05D0009B1B7D19461E
:1034B0000198FFF74EFF009B5B7B1A46009B1B8A1F
:1034C0001343009AD2891A43019B5A60009B5968A2
:1034D000009B9A68009B1B7B0198FFF74BFF009BAA
:1034E0005B7D002B05D0019B1B6843F48032019B60
:1034F0001A60009B9B7D1B0703F0E042009BDB7D75
:103500001B0503F4E0031A43019B1A66019B5B6FE2
:1035100023F03002019B5A67019B5B6F009A127E79
:103520001A43019B5A67009B1B781A46019BDA607D
:1035300000BF03B05DF804FB00000140000401403F
:1035400082B00190019B214A934202D0019B204A04
:10355000934200BF019B40F6AA62DA60019B002201
:103560001A60019B41F205025A60019B00229A6099
:10357000019B00225A61019B0022DA64019B154ADB
:103580009A64019B00221A66019B00225A67019BE4
:1035900000229A67019B0022DA67019B0B4A934243
:1035A00003D0019B0A4A934202D1019B00221A6573
:1035B000019B00229A65019B054A934202D1019B1F
:1035C0000022DA6500BF02B0704700BF0000014072
:1035D00000040140F9FF010082B0019000BF019B8F
:1035E0001B6903F08003002BF9D0019BDB69DBB280
:1035F000184602B0704782B001900B468DF8033038
:1036000000BF019B1B6903F04003002BF9D09DF81C
:103610000320019B5A6300BF02B0704782B003468B
:103620008DF807309DF8073003F01F0205499DF91A
:1036300007305B09012000FA02F241F8232000BFA5
:1036400002B0704700E100E082B003468DF8073019
:103650009DF8073003F01F0206499DF907305B090A
:10366000012000FA02F2603341F8232000BF02B0CB
:10367000704700BF00E100E084B00190019B002B87
:1036800003D0019BB3F5004F00BF019BB3FA83F356
:10369000C3F11F030393039B184604B07047000057
:1036A00082B00190044A019B04331B01134404338C
:1036B0001B68184602B070470020044082B0019099
:1036C0000091054A019B04331B0113440433009A03
:1036D0001A6000BF02B070470020044000B583B0FC
:1036E00001900198FFF7DCFF0346184603B05DF830
:1036F00004FB00B583B00190009100990198FFF799
:10370000DDFF00BF03B05DF804FB0000014B9B68C8
:10371000184670470020044082B00190024A019B85
:10372000136200BF02B070470020044082B00190D5
:10373000044B5A6A019BDB43024913404B6200BFB2
:1037400002B070470020044082B00190044B5A6AD6
:103750000349019B13434B6200BF02B0704700BF97
:103760000020044082B0054B5B6A0193034B9A69C9
:10377000019B1340184602B0704700BF0020044070
:1037800082B0EFF310830093009B019372B6019B0C
:10379000184602B0704782B00190019B002B00D107
:1037A00062B600BF02B0704700B587B00190002339
:1037B000059300230493204B1B7883F00103DBB2B5
:1037C000002B01D01D4B33E0FFF7DAFF039002E03E
:1037D000059B01330593059B032B0ADC1849059AC9
:1037E00013469B001344DB000B441E331B78002B55
:1037F000EED1059B042B02D1124B049314E0019BE4
:10380000002B0FD00E49059A13469B001344DB0092
:103810000B441E3301221A70059A019B1A60002383
:10382000049301E0084B04930398FFF7B4FF049B53
:10383000184607B05DF804FB92060020061000F061
:10384000E8050020011000F0041000F008B5274B37
:103850001B78002B01D0002345E001212448FDF70F
:10386000F1FD02212348FEF703F80820FFF704FFCB
:103870000346DAB2204B1A7101212048FDF7E2FD20
:103880001D48FFF703FC1E490120FFF7D5FB40F25E
:10389000FF70FFF74BFF40F2FF70FFF73DFF194B42
:1038A00000229A601D20FFF7CFFE1D20FFF7B6FE15
:1038B0000120FFF749FFA0220021134802F060FA1F
:1038C000124B00221A70124B00221A70114B002268
:1038D0001A60114B00221A60104B00221A60034B31
:1038E00001221A700023184608BD00BF920600206E
:1038F00000050A0005002200BC020020A0091400F7
:10390000C802002000200440E805002090060020A6
:10391000910600208C0600209406002098060020C6
:103920002DE9F0418EB00390019200930B468DF883
:103930000B3000230C93924B1B7883F00103DBB216
:10394000002B01D08F4B80E1039B032B01D98E4BC1
:103950007BE1FFF715FF0B908C49039A13469B0000
:103960001344DB000B441E331B7883F00103DBB2EE
:10397000002B04D00B98FFF70EFF854B65E1019BF0
:10398000002B0BD1009B002B03D0009B14990398B4
:1039900098470B98FFF7FFFE002356E1FFF7B6FEAE
:1039A0000D907A49039A13469B001344DB000B44A5
:1039B0001833009A1A60019B19464FF000024FF02D
:1039C00000034FF00004D40344EA5144CB0313F541
:1039D0007A6744F100084FF4FA524FF0000338467A
:1039E000414601F087F803460C4619462246674CCB
:1039F000039803469B000344DB0023440833C3E9D8
:103A000000129DF80B30012B28D1019B4FF47A72E4
:103A100002FB03F15D48039A13469B001344DB004D
:103A200003440833D3E900341A46F42303FB02F3BA
:103A3000CB1A18465549039A13469B001344DB00E2
:103A40000B44103318605149039A13469B001344EA
:103A5000DB000B4414337A221A6013E04B49039ABB
:103A600013469B001344DB000B440833D3E90012D8
:103A7000464C039803469B000344DB002344083371
:103A8000C3E900124149039A13469B001344DB002B
:103A90000B440833D3E900345D1C44F100063B4974
:103AA000039A13469B001344DB000B44C3E9005602
:103AB0003649039A13469B001344DB000B441C3326
:103AC00001221A703149039A13469B001344DB000C
:103AD0000B441F339DF80B201A702C49039A134690
:103AE0009B001344DB000B442033149A1A60294BCB
:103AF0001B78002B04D00B98FFF74DFE0023A4E0A9
:103B0000254B1B68B3F1FF3F04D0234B1B680133E7
:103B1000214A1360214B1B7883F00103DBB2002B99
:103B200040D01F4A0D9B13600420FFF7F5FD174995
:103B3000039A13469B001344DB000B44D3E9003483
:103B4000CDE908346FF064030793079B19464FF0E3
:103B50000002DDE90834A24208BF994201D20B46B7
:103B6000144606930D9A069B134419460120FFF74D
:103B7000C0FD0420FFF7E8FD084B01221A7057E052
:103B800092060020061000F0021000F0E805002068
:103B9000031000F0900600208C0600209106002003
:103BA000880600202B4B1B68012B41D12A49039A20
:103BB00013469B001344DB000B441C3300221A7095
:103BC0000420FFF7B3FD254B1B680D9AD31A05930C
:103BD000059800F09BF800F00DFA0C9B002B09D122
:103BE0001D49039A13469B001344DB000B441C330E
:103BF00001221A700C9B01330C930D9800F02AFAE5
:103C0000FFF784FD0D90154B1B680D9AD31A059391
:103C10000120FFF763FD0246104B1B68D31A049383
:103C20000F4B1B78002B03D0059A049B9A42C7D2F6
:103C3000084B1B68002B04D0064B1B68013B054A50
:103C400013600B98FFF7A7FD002318460EB0BDE8E0
:103C5000F08100BF8C060020E805002088060020C7
:103C60009106002000B587B0FFF78AFD0490FFF7AA
:103C700079FD0390039B23F005031846FFF74CFDE5
:103C8000039B03F00403002B30D01D4B01221A705C
:103C9000FFF73CFD05900420FFF748FD194B1B681A
:103CA000059AD31A0293029800F030F800F0A2F9B6
:103CB000059800F0CFF9FFF729FD0590114B1B681F
:103CC000059AD31A02930120FFF708FD02460D4B17
:103CD0001B68D31A01930C4B1B78002B03D0029A5C
:103CE000019B9A42D7D2064B00221A7000F026FAA6
:103CF0000498FFF750FD00BF07B05DF804FB00BF5C
:103D00009006002088060020910600202DE9F0474B
:103D10008CB0079000230B9362E1B5490B9A1346D0
:103D20009B001344DB000B441D3300221A70B04982
:103D30000B9A13469B001344DB000B441C331B7887
:103D4000002B00F04A81AA490B9A13469B001344AA
:103D5000DB000B44D3E90034079A11464FF0000210
:103D6000A24208BF994218D2A1490B9A13469B0060
:103D70001344DB000B44D3E90012079B4FF000040F
:103D8000CF1A62EB04089A490B9A13469B0013441E
:103D9000DB000B44C3E900781FE195490B9A1346F9
:103DA0009B001344DB000B441F331B78002B0AD10C
:103DB0008F490B9A13469B001344DB000B441C33C2
:103DC00000221A70F4E0079B19464FF00002884C5D
:103DD0000B9803469B000344DB002344D3E90034E3
:103DE000C81A049062EB04030593DDE90434CDE9BD
:103DF00008347F490B9A13469B001344DB000B44A5
:103E00000833D3E900567A490B9A13469B001344B2
:103E1000DB000B440833D3E90034DDE908011A461E
:103E2000234600F067FE1C461346B5EB030966EB1C
:103E3000040A6F490B9A13469B001344DB000B44A2
:103E4000C3E9009A6A490B9A13469B001344DB00AE
:103E50000B4410331B68002B55DD65490B9A134644
:103E60009B001344DB000B441433196860480B9A21
:103E700013469B001344DB00034410331B681944B2
:103E80005B480B9A13469B001344DB000344143336
:103E9000196057490B9A13469B001344DB000B44EF
:103EA00014331B68F32B40F2838051490B9A13465D
:103EB0009B001344DB000B44D3E900345A1C0092EE
:103EC00044F1000301934A490B9A13469B001344A3
:103ED000DB000B44DDE90012C3E9001244490B9AF0
:103EE00013469B001344DB000B4414331B68A3F1FF
:103EF000F4013F480B9A13469B001344DB00034434
:103F00001433196054E03A490B9A13469B0013444A
:103F1000DB000B441433196835480B9A13469B0099
:103F20001344DB00034410331B68C91A30480B9A52
:103F300013469B001344DB000344143319602C49DF
:103F40000B9A13469B001344DB000B4414331B688D
:103F5000F32B2DD926490B9A13469B001344DB0003
:103F60000B44D3E9003413F1FF32029244F1FF33E2
:103F700003931F490B9A13469B001344DB000B4429
:103F8000DDE90212C3E9001219490B9A13469B009E
:103F90001344DB000B4414331B68A3F1F4011448F1
:103FA0000B9A13469B001344DB000344143319603F
:103FB0000F490B9A13469B001344DB000B44183344
:103FC0001B68002B09D00A490B9A13469B00134427
:103FD000DB000B441D3301221A700B9B01330B9342
:103FE0000B9B032B7FF799AE00BF0CB0BDE8F087A9
:103FF000E805002010B582B00023019322E01449A7
:10400000019A13469B001344DB000B441D331B78BD
:10401000002B14D00E49019A13469B001344DB0079
:104020000B4418331C6801980949019A13469B00F8
:104030001344DB000B4420331B681946A047019B47
:1040400001330193019B032BD9DD00BF02B010BDEA
:10405000E805002010B58AB001904FF0FF334FF013
:10406000FF34CDE906340023099327E03049099A4B
:1040700013469B001344DB000B441C331B78002BBE
:1040800019D02B49099A13469B001344DB000B44BB
:10409000D3E90012DDE90634A24208BF99420AD2F0
:1040A0002349099A13469B001344DB000B44D3E9D0
:1040B0000034CDE90634099B01330993099B032B96
:1040C000D4DD1C4B00221A70DDE90634B4F1FF3F49
:1040D00008BFB3F1FF3F27D0DDE90634CDE9043452
:1040E0006FF064030393039B19464FF00002DDE970
:1040F0000434A24208BF994201D20B461446CDE9CE
:1041000006340D4A019B13600420FFF705FB069A55
:10411000019B134419460120FFF7EBFA054B0122DE
:104120001A700420FFF710FB00BF0AB010BD00BFDB
:10413000E8050020910600208806002008B5FFF75A
:1041400011FB034603F00103002B07D00120FFF70A
:10415000E3FA034B1B680133014A136000BF08BD3B
:104160009406002082B003468DF807309DF8073092
:1041700003F01F0205499DF907305B09012000FA91
:1041800002F241F8232000BF02B0704700E100E0D6
:1041900082B003468DF807309DF8073003F01F0208
:1041A00006499DF907305B09012000FA02F26033ED
:1041B00041F8232000BF02B0704700BF00E100E0DB
:1041C00082B00190024A019BD36200BF02B07047E7
:1041D00000300E4082B00190044B1A6B019BDB4310
:1041E000024913400B6300BF02B0704700300E401D
:1041F00082B00190044B1A6B0349019B13430B637C
:1042000000BF02B0704700BF00300E4082B0054BC7
:104210001B6B0193034B5A6A019B1340184602B073
:10422000704700BF00300E4008B500F003F800BF33
:1042300008BD000000B583B0FFF7E8FF0190019BC7
:10424000002B1CDA214B1B681B68002B12D01F4B64
:104250001B681B6800931D4B1B6808220021184631
:1042600001F08EFD00F050FA03461A46009B002133
:10427000104698474FF00040FFF7A2FF20E0019B57
:1042800003F08043002B1BD0114B1B681B68002BD5
:1042900012D00F4B1B681B6800930D4B1B68082244
:1042A0000021184601F06CFD00F02EFA03461A4674
:1042B000009B0121104698474FF08040FFF780FF98
:1042C00000F01CF900BF03B05DF804FB08070020F4
:1042D0000407002000B583B003460A468DF8073076
:1042E00013468DF806309DF90730184600F004F8A3
:1042F00000BF03B05DF804FB10B584B003468DF831
:1043000007302B4B9B68012B0CBF012300238DF83A
:104310000E309DF90730402B03DC00238DF80F3061
:104320000AE09DF907304F2B03DC01238DF80F3095
:1043300002E002238DF80F309DF80F301D491E4A10
:104340000C46DB00134493E8030084E803009DF867
:104350000F301A491A4A0C46DB00134493E8030055
:1043600084E803009DF80E30002B03D0104B4AF672
:10437000E8529A609DF80F30012B07D0022B09D02C
:10438000002B0BD10020FEF7CFFB07E00120FEF74A
:10439000CBFB03E00220FEF7C7FB00BF9DF80E3009
:1043A000002B02D0024B00229A6000BF04B010BD67
:1043B00000300E409C06002030070020CC06002074
:1043C0001807002000B583B06B461846FEF7A4FE20
:1043D0009DF80130012B39D1412000F065F80346EA
:1043E0008DF807301B4A9DF807301371194B1A4A94
:1043F0001A60392000F058F803468DF80630502036
:1044000000F052F803468DF80730144A9DF8063044
:104410001373124B104A9A600E4A9DF807301373BB
:104420000C4B0D4A9A60482000F03EF803468DF888
:1044300006300A4A9DF806301375084B064A1A6181
:1044400000F062F903461846FFF756FF00BF03B0BD
:104450005DF804FB30070020D5420000180700205B
:1044600084B001900E4B1B681946019BDB000D4A7E
:10447000A2FB03239B08CB1A0393039B13F1800F2A
:1044800003DA6FF07F03039304E0039B7F2B01DDCE
:104490007F230393039B5BB2184604B0704700BFB1
:1044A00014070020CDCCCCCC84B001900C4B196803
:1044B000019A13469B001344DB10CB1A0393039B12
:1044C000FF2B02DDFF23039304E0039B002B01DAA3
:1044D00000230393039BDBB2184604B0704700BF70
:1044E0001007002008B54FF04040FFF769FE4FF07D
:1044F0004040FFF76FFE00BF08BD000000B583B06D
:104500000023019324E0454A019B52F83330002BED
:104510001BD0434B1B681B68002B06D1019BDB00A3
:104520003E4A13443E4A13600FE03C4A019BDB00C5
:1045300013441A793A4B1B681B799A4205D9019B9F
:10454000DB00364A1344364A1360019B0133019362
:10455000019B052BD7DD0023019324E0314A019B09
:1045600052F83330002B1BD02F4B1B681B68002BDD
:1045700006D1019BDB002B4A13442B4A13600FE04A
:10458000284A019BDB0013441A79274B1B681B79CF
:104590009A4205D2019BDB00224A1344224A13604F
:1045A000019B01330193019B052BD7DD1C4B1B683D
:1045B0001B68002B0FD01D4BDB6923F0FF03184A4B
:1045C000126812791146194A0B43D3614FF08040AB
:1045D000FFF70EFE03E04FF08040FFF7FBFD124BAC
:1045E0001B681B68002B10D0104BDB6923F47F4342
:1045F0000D4A12681279120211460C4A0B43D3611C
:104600004FF00040FFF7F4FD03E04FF00040FFF7EC
:10461000E1FD00BF03B05DF804FB00BF9C06002075
:1046200004070020CC0600200807002000300E40C0
:1046300082B0164B1B681B0CDBB20193134B5B6DF6
:10464000DBB20093019BFF2B02D0009BFF2B05D117
:104650000F4B1B7801930F4B1B780093019A134665
:104660009B001344DA08009B13441A460A4B1A6055
:10467000009BDB00094AA2FB03239A08019B134419
:104680001A46074B1A6000BF02B07047B081E00FB6
:10469000D0020020CF02002010070020CDCCCCCCCF
:1046A0001407002008B5124B01221A703022002195
:1046B000104801F065FB302200210F4801F060FB3B
:1046C0000E4B0F4A1A600F4B0D4A1A60FFF7B0FFEE
:1046D000FFF778FEFFF706FF0020FFF759FD0020E7
:1046E000FFF740FDFFF70AFF0023184608BD00BF93
:1046F0000C0700209C060020CC06002004070020A8
:10470000FC0600200807002000B583B0064B1B6A9A
:10471000DBB201930198FFF7A3FE03465BB2184694
:1047200003B05DF804FB00BF00300E4082B00346CA
:104730008DF807309DF8073003F01F0205499DF9F9
:1047400007305B09012000FA02F241F8232000BF84
:1047500002B0704700E100E082B003468DF80730F8
:104760009DF8073003F01F0206499DF907305B09E9
:10477000012000FA02F2603341F8232000BF02B0AA
:10478000704700BF00E100E0044B1B69034A23F0BF
:104790000403136130BF00BF704700BF00ED00E0AD
:1047A00082B001904FF6FF73184602B0704700B513
:1047B00085B00390029101920398FFF7F1FF039AED
:1047C000029B06331B0113440433019A1A6000BF95
:1047D00005B05DF804FB82B00190019B5B6A18464E
:1047E00002B0704782B001900091019B009A5A611B
:1047F00000BF02B0704782B001900091019B9A699E
:10480000009BDB431A40019B9A6100BF02B07047D6
:1048100082B001900091019B9A69009B1A43019B11
:104820009A6100BF02B0704782B00190019BDB68C3
:10483000184602B0704700B583B00190009101980E
:10484000FFF7AEFF019B009ADA6100BF03B05DF88D
:1048500004FB0000F0B589B003AB00221A605A6077
:104860009A601A7301238DF80C306B4600221A608F
:104870005A609A6002238DF8063001213648FCF711
:10488000E1FD6B461A4600213448FEF710FD4FF655
:10489000FF713248FFF7CFFF00238DF80E3003ABD6
:1048A00019462E48FEF790FC2D48FCF733FE0246D1
:1048B0002C4B1A602B4B1B689DF80E20D340294AC5
:1048C00013609DF80E300133DBB28DF80E309DF889
:1048D0000E300A2B04D8234B1B68234A9342DED8A0
:1048E0002248FCF717FE0246214BB3FBF2F3079375
:1048F0001C4B1B6819464FF00002079B4FF0000449
:1049000003FB02F701FB04F03844A1FB0334021956
:10491000144618494FF000025D1844EB0206164A8F
:104920004FF000032846314600F0E4F803460C46F9
:104930001A46124B1A60124B00221A7010210748B7
:10494000FFF759FF0A20FFF707FF0A20FFF7EEFEE7
:104950000023184609B0F0BD0002040000800140A9
:10496000404105004807002080841E0070000200BE
:1049700000B0710B20A1070040420F004C0700203F
:10498000500700202DE9F04184B00190224B1B68B4
:1049900019464FF00002019B4FF0000403FB02FC9C
:1049A00001FB04F06044A1FB0334021914461B49C7
:1049B0004FF000025F1844EB0208194A4FF0000361
:1049C0003846414600F096F803460C46CDE90234DD
:1049D0000DE04FF6E85000F041F8DDE902341149EE
:1049E0004FF0FF325D1844EB0206CDE90256DDE9D7
:1049F00002344FF6E8514FF00002A24208BF99423C
:104A0000E7D3BDF80830184600F028F80023184610
:104A100004B0BDE8F08100BF4807002020A10700D6
:104A200040420F001802FFFF00B583B00948FFF7AE
:104A3000FBFE0190019B03F01003002B06D0102118
:104A40000448FFF7CFFE044B01221A7000BF03B0E9
:104A50005DF804FB008001405007002000B587B0DE
:104A60000346ADF80630BDF80630002B38D0FEF70F
:104A700087FE05901C48FFF7AEFE01461B4B1B68E6
:104A80000493BDF80630ADF80E30BDF80E20049B3F
:104A9000934238BF13460B449BB20293029A002103
:104AA0001148FFF784FE10210F48FFF79BFE1021ED
:104AB0000D48FFF7ADFE0598FEF76DFE01E0FFF72C
:104AC00063FE0B4B1B78DBB283F00103DBB2002BE0
:104AD000F5D1074B00221A7010210348FFF78BFE17
:104AE00000BF07B05DF804FB008001404C070020C8
:104AF0005007002053B94AB9002908BF00281CBF3D
:104B00004FF0FF314FF0FF3001F0EAB8ADF1080C83
:104B10006DE904CE00F006F8DDF804E0DDE90223DB
:104B200004B070472DE9F047089E04468846002BE4
:104B300040F085808A42154648D9B2FA82F24AB1DD
:104B4000C2F1200701FA02F320FA07F7954047EA7D
:104B5000030894404FEA154E230CB8FBFEF71FFAEA
:104B600085FC0EFB178843EA084307FB0CF19942CA
:104B700009D9EB1807F1FF3080F0E380994240F249
:104B8000E080023F2B445B1AA4B2B3FBFEF00EFBA5
:104B9000103344EA034400FB0CFCA44509D92C194A
:104BA00000F1FF3380F0CB80A44540F2C88002388A
:104BB0002C4440EA0740A4EB0C0400271EB1D4406B
:104BC0000023C6E900433946BDE8F087002A53D0E8
:104BD000B2FA82F2002A40F0B680491B4FEA154E25
:104BE0001FFA85F80127B1FBFEFC230C0EFB1C11FC
:104BF00043EA014308FB0CF1994207D9EB180CF189
:104C0000FF3002D2994200F2EC808446591AA3B2D6
:104C1000B1FBFEF00EFB101443EA044408FB00F85D
:104C2000A04507D92C1900F1FF3302D2A04500F2AC
:104C3000DC801846A4EB080440EA0C40BEE78B4237
:104C400008D9002E78D00027C6E900013846394639
:104C5000BDE8F087B3FA83F77FB98B4202D3824273
:104C600000F2BD80841A61EB030301209846002EF8
:104C7000A9D0C6E90048A6E7FFDEC7F12005BB4082
:104C800022FA05FC4CEA030C01FA07F420FA05F8B5
:104C900021FA05F34FEA1C4E48EA0404B3FBFEF97F
:104CA000210C0EFB19331FFA8CF841EA034309FB70
:104CB00008FA9A4502FA07F200FA07F10BD91CEB41
:104CC000030309F1FF3080F088809A4540F2858027
:104CD000A9F102096344A3EB0A03A4B2B3FBFEF0FB
:104CE0000EFB103344EA034400FB08F8A04508D942
:104CF0001CEB040400F1FF336BD2A04569D90238E4
:104D0000644440EA0940A4EB0804A0FB02894C4536
:104D1000C6464B4654D351D0002E69D0B1EB0E029B
:104D200064EB030404FA05F522FA07F3FC401D4383
:104D3000C6E90054002746E73746304643E71846A1
:104D400037E707461FE7C2F1200320FA03F7954033
:104D500001FA02F021FA03F34FEA154E3843010C31
:104D6000B3FBFEF71FFA85F80EFB173341EA034148
:104D700007FB08F38B4204FA02F407D9691807F11C
:104D8000FF3C28D28B4226D9023F2944CB1A81B25C
:104D9000B3FBFEF00EFB103341EA034100FB08F3C6
:104DA0008B4207D9691800F1FF3C10D28B420ED913
:104DB00002382944C91A40EA074714E74145ABD2F3
:104DC000B8EB020E69EB0C0201381346A4E760460B
:104DD000F0E7184695E76746D8E781467BE738460F
:104DE00045E7ACF1020C2B4410E702382C4421E7D4
:104DF0003746E8E603685A004CBF43F0004323F00F
:104E000000431844704700BF69B32DE9F04701F132
:104E1000FF3917460646C8464FF0000A0AEB080459
:104E200004EBD4746410E50071190846FFF7E2FF43
:104E3000A145034605F10800304409D0BB4209D81A
:104E4000FFF7D8FF0138B8420AD204F1010AE5E7BA
:104E5000BB4205D9A24502D004F1FF38DEE70021AC
:104E60000846BDE8F0870846704700BF012807D014
:104E7000022807D0044B00280CBF184600207047BA
:104E80000248704702487047495500004D550000E0
:104E90005155000030B5244B83B004468D1E4BB3F2
:104EA00001A92846AFF30080F0B101992A46FFF727
:104EB000ABFF0146C0B1FFF79DFF4B68A064012B1B
:104EC0002ED0002B01F1040026DBFFF793FF002317
:104ED000C4E913030368002B12DBFFF78BFF0023E9
:104EE0002061184603B030BD002323610923184612
:104EF00003B030BD0D490E48091AC9100191D5E71C
:104F0000C3F30360FFF7B2FF002814BF0023092397
:104F10002061184603B030BD0123C4E91303D9E76B
:104F2000002323610523DCE70000000094600000FB
:104F30001C5F00000368DA0710B5044606D49B071F
:104F400000F1480009D500F055FC2368590709D540
:104F50001A070ED5DB0613D510BD00F043FC2368FD
:104F60005907F5D404F1D00000F04CFC23681A076F
:104F7000F0D404F5A87000F04DFC2368DB06EBD4F8
:104F800004F5E870BDE8104000F088BC036803B188
:104F900003441846704700BF09207047704700BFA0
:104FA00070B504460D46296C2046FFF773FF064690
:104FB00088B92B6C63612A462369214601209847F2
:104FC0000828F0D0072806D13046296CFFF7E6FF05
:104FD000281D00F0FBFB00F085FE00BF2DE9F04727
:104FE0000C1D054617460FCCADF5727D03AE0FC6FE
:104FF0000FCC0FC60FCC0FC694E80F0002ACD5F84B
:105000000C80D5F8189086E80F0000232846216C04
:105010002360FFF73FFF002F064614BF0A2709272A
:1050200046BB236C6B614FF4F07221467AA800F006
:1050300099FE2B697AAA294638469847889B82466A
:10504000CDE90049394663642A462B460120C04712
:10505000D8B94FF4F0727AA9204600F083FEBAF175
:10506000080F18D1216C2846FFF714FF06460927C0
:10507000002ED6D0A36B47F01001CDE900492A4697
:10508000636401202B46C04700B1092630460DF568
:10509000727DBDE8F087BAF1070FF6D13046216C7A
:1050A000FFF77CFF03A800F091FB00BF406C704746
:1050B000F0B5CB6B0B640E1D0F4604460FCEF9B056
:1050C00001AD0FC50FCE0FC50FCE0FC596E80F006F
:1050D0004FF0FF3685E80F00009606E023696A4628
:1050E000214698470828054608D110992046FFF721
:1050F000D1FE0028F2D0092079B0F0BD6846FFF754
:1051000019FF062DF7D139462046FFF749FF00BFAA
:1051100030B4DD6BC160826119461D64002230BC71
:105120005CE700BF70B5C66843690B64AEB903693C
:105130000A4604460D46014602209847072805D036
:1051400008280FD129462046FFF72AFF3046296C50
:10515000FFF724FF281D00F039FB0122FFF73EFF77
:1051600000F0C0FD00F0BEFDC2681AB1CA6B0A644F
:10517000002233E79CE700BF704700BF836813B18C
:105180000146012018477047042910D8DFE801F0D4
:1051900005030F0303000120704743B90F2A06D807
:1051A00000EB820218465368009A13607047022091
:1051B000704700BF10B584B0002303AC0A460094CA
:1051C0001946FFF7E1FF039804B010BD042910D879
:1051D000DFE801F005030F0303000120704743B926
:1051E0000F2A06D800EB8200009A12684260184627
:1051F00070470220704700BF10B584B0002303AC95
:10520000039200940A461946FFF7E0FF04B010BD70
:10521000F0B5D36B1364151D07460E460FCDADF5E3
:105220000F7D17AC0FC40FCD0FC40FCD0FC495E881
:105230000F004FF0FF3584E80F00169510E016A818
:10524000FFF7DAFF314616A8B84716AA694678B9BB
:10525000049B08209847052804460AD0092807D04F
:1052600026996846FFF716FE6A460C210028E6D00C
:10527000092416A8FFF75EFE20460DF50F7DF0BD50
:105280002DE9F04FCC6C89B00D4654F8041B069400
:10529000174600F003081E46002B61D00B0CDAB253
:1052A00009048DF81D30022304EB820405918DF86A
:1052B0001C302B6DB8F1020F08BFAC6B13F001036B
:1052C00078D1019300F008030293D4F800A0BAF15A
:1052D000000F00F01B81022E3ED0B4F800A0B4F8FD
:1052E00002900434AA6C29F0010B0F213846934434
:1052F000FFF760FF83452DD82AF001025A4482420D
:1053000094BF002001204FEA490303F002030AF092
:10531000010A43EA0A03012B30D03BB3022B15D11B
:10532000236823F0004BB8F1000F4DD130B1029A41
:10533000002A6DD0BBF1000F00F0A080002B00DA36
:1053400004340BF1010B04EB8B04BEE7092009B018
:10535000BDE8F08F0020D6E7D4F804900834C1E708
:10536000090203230591ADF81C30A2E7B8F1000F44
:1053700002D0002840F09D800434A6E7B8F1000F69
:105380002CD1A8B1D4E90023991C4FEAD272DDD008
:1053900005F158010133049100F09E80201DFFF7B4
:1053A000F5FD04AB01462846AFF3008000286FD11D
:1053B00008348AE7384605A900F00AFB0028C5D161
:1053C000082009B0BDE8F08F0D213846D5F82090AF
:1053D000FFF7F0FE814540D02368AFE70D21384646
:1053E000D5F82090FFF7E6FE8145E1D1AB6A9C42FB
:1053F000DED12046FFF7FEFC0F2102463846FFF7BC
:10540000FBFE38462A460021FFF7F6FE07209EE7FE
:10541000BBF1000F32D005F15803CDF80C8004F138
:105420000409B046DDF808A01E4601E0DA4525D0A3
:1054300048460496FFF7AAFD04AB01460022284621
:10544000AFF300800AF1010A09F104090028EDD048
:1054500046462368DDF80C8070E7AB6A9C42BBD1FE
:1054600004224FF00009A318C5E90AB9C5E90C23C5
:1054700023684B4538DB0123019362E738460D2151
:10548000FFF798FE049B2862C5E9093406205EE711
:1054900081460D213846FFF78DFEB9F1020F2862D3
:1054A0001FD12B46049A43F82C2F6B62AC62062066
:1054B0004DE72046FFF79EFC04340646AC632846C1
:1054C000AFF3008000283FF441AF384632460F2149
:1054D000FFF792FE07203AE738460D21FFF76AFEF4
:1054E0002862049B6B62E1E70BF1010004EB800092
:1054F000FFF780FC0F2102463846FFF77DFE384655
:105500002A464946FFF778FE072020E705A93846D6
:1055100000F05EFA00287FF419AF019B002B3FF4E6
:105520004FAF0F213846FFF745FE0E2102463846A1
:10553000FFF762FE3846034A0F21FFF75DFE0720A2
:1055400005E700BF00000000002399E6012397E66D
:10555000022395E62DE9F0410546C4B0042900F286
:10556000B380DFE801F09551B12B0300002B40F030
:10557000AB80102A00F2A8802B68DC0600F1FA80CC
:1055800022AC2046019200F093F9AE6B019A002301
:10559000012707FA03F11142304604D050F8041BEA
:1055A00044F8231006460133042BF2D12046AE63A3
:1055B00000F074F9002044B0BDE8F081032B40F006
:1055C0008380160C97B2F319102B7DD82B681A071D
:1055D00000F1DA8022AC204600F03EF904EBC60070
:1055E000A96B4FB10346FA001044CE1A9F5943F8F5
:1055F000047B8342FAD111442046A96300F00AF9E2
:10560000002044B0BDE8F081012B4FEA12461FFA9A
:1056100082F855D0052B57D106EB0807202F53D819
:105620000F2E55D94746B8F1000F64D14046A96BFB
:10563000B8F1000F00F0B780002722AC04EBC604DD
:10564000043C01EBC00251F8040B44F8040F9142F2
:10565000F9D17FB102AC102E304638BF102004EBD8
:10566000C000843802EBC70152F8044B40F8044FE5
:105670009142F9D1012B00F08F800F2EA96365D9DB
:1056800017B102A800F0BEF8002044B0BDE8F081D8
:10569000D3B9AC6B97B2012605F1040C06FA03F1FD
:1056A0003942204604D050F8041B4CF8231004461D
:1056B0000133102BF2D112F40050E5D1AC6304E0B9
:1056C00006EB0802102A28D9022044B0BDE8F08178
:1056D000102F6AD9103F2A68D0070AD5284622F031
:1056E000010242F0020240F8482B019300F086F8D4
:1056F000019B002F5BD02A68510731D40F2E29D986
:1057000002AC2046019300F081F8C6F11000002899
:10571000A96B019B91DC0A469DE70F2ED4D82A681D
:10572000D10708D5284622F0030240F8482B019300
:1057300000F05CF8019B019322AC204600F056F883
:105740004046A96B019B40B3002777E722A800F0F1
:1057500051F895E722A8019300F050F8019BCFE79C
:10576000284622F0040240F8D02B019300F04EF8B6
:10577000019BC3E723F010032B6005F5E87001924D
:1057800000F096F8019AFBE623F008032B6005F57C
:10579000A87000F061F81DE722AC0431A96320462F
:1057A00000F020F870E7474667E7002793E70F2EE1
:1057B0003FF63CAF22AC2046019300F01FF8404674
:1057C000A96B019B00287FF439AF56E700F1340143
:1057D00091E838009C46A6464CF8045D90E8FF0F1F
:1057E000E54600BD90EC210B704700BF80EC210B1B
:1057F000704700BF90EC200B704700BF80EC200B7F
:10580000704700BFD0EC200B704700BFC0EC200BEE
:10581000704700BFF0EC0201F0EC0211F0EC022145
:10582000F0EC0231F0EC0241F0EC0251F0EC0261DC
:10583000F0EC0271F0EC0281F0EC0291F0EC02A1CC
:10584000F0EC02B1F0EC02C1F0EC02D1F0EC02E1BC
:10585000F0EC02F1704700BFE0EC0201E0EC021155
:10586000E0EC0221E0EC0231E0EC0241E0EC02511C
:10587000E0EC0261E0EC0271E0EC0281E0EC02910C
:10588000E0EC02A1E0EC02B1E0EC02C1E0EC02D1FC
:10589000E0EC02E1E0EC02F1704700BFB0FC0181F6
:1058A000B0FC0191B0FC01A1B0FC01B1704700BF98
:1058B000A0FC0181A0FC0191A0FC01A1A0FC01B110
:1058C000704700BFEC4600B52DE900502DE9FF1FE1
:1058D0004FF000032DE90C0001A9FFF7E9FBDDF80B
:1058E00040E012B0704700BFEC4600B52DE9005013
:1058F0002DE9FF1F4FF000032DE90C0001A9FFF770
:1059000011FCDDF840E012B0704700BFEC4600B576
:105910002DE900502DE9FF1F4FF000032DE90C0089
:1059200001A9FFF721FCDDF840E012B0704700BF8D
:10593000EC4600B52DE900502DE9FF1F4FF00003A4
:105940002DE90C0001ABFFF7E3FBDDF840E012B0FE
:10595000704700BFEC4600B52DE900502DE9FF1F50
:105960004FF000032DE90C0001AAFFF751FCDDF810
:1059700040E012B0704700BF027A7AB9437AA3B10F
:105980004268013B10B4437213680321141D017275
:105990001A024460026010BC180E70470368013A96
:1059A00002721A020260180E7047B020704700BFE2
:1059B00000B585B003AA0023009219460C22FFF718
:1059C000E3FB039805B05DF804FB00BFF0E700BF00
:1059D0002DE9F043054685B00E464FF000083046ED
:1059E000FFF7CAFFB028044600F0B280070620D5B2
:1059F00000F0F003802B4DD0902B36D0A02B60D040
:105A0000B02B74D0C02B00F08B8000F0F803D02BAB
:105A10000BD100F00702013242F4002205230121DC
:105A20002846FFF797FD0028D9D0092005B0BDE82A
:105A3000F0830DF10C09002319468700CDF8009082
:105A40000D222846FFF7A0FBFFB2039BCDF8009084
:105A5000043760064CBFDF1BFF18002319460D22D8
:105A600028460397FFF7B2FBB9E700F00D030D2BB3
:105A7000DBD003AF002300F00F0219460097284641
:105A8000FFF782FB0023009719460D222846FFF7F7
:105A90009DFBA4E73046FFF76FFF24020443B4F5F3
:105AA000004FC2D024010023A2B219462846FFF7B6
:105AB00051FD0028B9D114F4004F18BF4FF0010870
:105AC0008DE7C24302F007034FF47F621A410107DA
:105AD00002F47F624FF0000348BF42F4804219464F
